:100003003F065B4F666D7D077F6F777C395E797145
:080013000102040810204080E6
:0601A20001080001090044
:0C018B00E4FF20A2027F2B20A0027F2DA9
:010197002245
:03001B0002010DD2
:0D010D00C0E0C083C082C0D075D000C0002B
:10011A00C28E758DFA758B24D28E90780074FFF09A
:10012A00740A2508F8E6F4A3F0E50890001393F49E
:10013A00907800F005085308070509E509C39407F4
:10014A004003750900E509C395125004D280800264
:02015A00C28061
:0B015C00D000D0D0D082D083D0E032A1
:090198007F08780AE4F608DFFC98
:0101A100223B
:10016700120198C2AF758DFA758B24D28ED2ABD29D
:02017700AF22B5
:10017900758CC5758A68D28C308DFDC28CC28DDFB5
:02018900EF2263
:0601A900758911020167D7
:1000AA007E0E1201A9EE75F00A84E5F09000039322
:1000BA00F50AEE75F00A8493F50B7F0112017912A5
:1000CA00018BEF24D3600D24027010EEC3941250FA
:1000DA000A0E8007EED3940B40011EC374129EF5DC
:1000EA0012EE75F00A84E5F090000393F50AEE75B6
:1000FA00F00A8493F50B7F0112017912018BEF70DC
:03010A00F580B7C6
:0300000002001EDD
:0C001E00787FE4F6D8FD758112020065C1
:10002A000200AAE493A3F8E493A34003F68001F242
:10003A0008DFF48029E493A3F85407240CC8C333D7
:10004A00C4540F4420C8834004F456800146F6DFA6
:10005A00E4800B01020408102040809001A2E47E93
:10006A00019360BCA3FF543F30E509541FFEE4939B
:10007A00A360010ECF54C025E060A840B8E493A362
:10008A00FAE493A3F8E493A3C8C582C8CAC583CA8D
:10009A00F0A3C8C582C8CAC583CADFE9DEE780BE45
:0101A8000056
:00000001FF
