:100003003F065B4F666D7D077F6F777C395E797145
:080013000102040810204080E6
:0301D5000108001E
:03001B0002015986
:0D015900C0E0C083C082C0D075D000C000DF
:10016600C28E758DFA758B24D28E90780074FFF04E
:1001760074092508F8E6F4A3F0E50890001393F453
:09018600907800F0050853080709
:0B018F00D000D0D0D082D083D0E0326E
:0901C5007F087809E4F608DFFC6C
:0101CE00220E
:1001B3001201C5C2AF758DFA758B24D28ED2ABD224
:0201C300AF2269
:10019A00758CC5758A68D28C308DFDC28CC28DEF84
:0901AA001F70011E144E70E822C2
:0601CF007589110201B365
:10001E007C011201CFEC70047F0180027F00AC07DF
:10002E00E4FDEDC3940450EDE4FBEB75F00A84F9A6
:10003E00EB75F00A84AFF0ED75F00A84F511ED75ED
:10004E00F00A84AEF0EC14603204705A90000CE4A6
:10005E0093F510900003E493F50F900008E493F5E8
:10006E000E900003E493F50DE4F50CEE934480F549
:10007E000BE993F50AEF93F509802BEE90000393AD
:10008E004480F510E993F50FEF93F50EE4F50D901E
:10009E00000C93F50C900003E493FFF50B90000811
:1000AE00E493F50A8F09ED640360107F017E001260
:0F00BE00019A0BEB646460030200380D020030FE
:030000000200CD2E
:0C00CD00787FE4F6D8FD75811102011463
:1000D90002001EE493A3F8E493A34003F68001F21F
:1000E90008DFF48029E493A3F85407240CC8C33328
:1000F900C4540F4420C8834004F456800146F6DFF7
:10010900E4800B01020408102040809001D5E47EB0
:10011900019360BCA3FF543F30E509541FFEE493EB
:10012900A360010ECF54C025E060A840B8E493A3B2
:10013900FAE493A3F8E493A3C8C582C8CAC583CADD
:10014900F0A3C8C582C8CAC583CADFE9DEE780BE95
:0101D8000026
:00000001FF
