:10015B00FE2D012C0007FDF4012C0006FDB4012C33
:10016B000005FD6C012C0004FD45012C0003FCEF88
:10017B00012C0002FC8F012C00010000000000008C
:03001B00020003DD
:0D000300C28E85088D85098BD28EB2903299
:10018B00758CFA758A24D28C308DFDC28CC28DEFA2
:09019B001F70011E144E70E822D1
:10001E001200C045F060131200C0FDACF0ECF50804
:10002E008D09758DFF758BF0D28E9000041200EB4A
:10003E00FFAEF0E5F07044EF14B40700503D9000B1
:10004E005A75F003A4C58325F0C5837302006F02B1
:10005E00007302007702007B02007F020083020021
:10006E0087C2808016C2818012C282800EC28380B7
:10007E000AC2848006C2858002C2869000021200E7
:10008E00EBFFAEF012018BC28ED290D280D281D213
:10009E0082D283D284D285D2867FBC7E0202018B2D
:060123008B1A8A1B891CE7
:10012900E4F51DF51EAE1DAF1E7C007D061200AE66
:10013900AB1AE51C2FF9E51B3EFA9000021200EB01
:1001490045F0600D12001E051EE51E70D8051D80C4
:01015900D4D1
:01015A002282
:1001A400758911D2ABD2AF7BFF7A01795B1201233F
:0901B4007F017E0012018B80EE38
:030000000201BD3D
:0C01BD00787FE4F6D8FD75811E0201A4D5
:1000AE00EF8DF0A4A8F0CF8CF0A428CE8DF0A42E66
:0200BE00FE2220
:1000C000BB010A89828A83E0F5F0A3E0225006870B
:1000D000F009E71922BBFE07E3F5F009E3192289CD
:0B00E000828A83E493F5F07401932200
:1000EB00BB0110E58229F582E5833AF583E0F5F053
:1000FB00A3E0225009E92582F886F008E622BBFE30
:10010B000AE92582F8E2F5F008E222E5832AF58375
:08011B00E993F5F0A3E993223A
:00000001FF
